:10000000F0C114C213C212C294C810C20FC20EC2F1
:100010000DC21CC80BC20AC209C208C240C806C22F
:100020007BC604C203C202C2062040402020400416
:1000300041413608017F0408364141051113151965
:100040001105190505051E05110A040A11071E01EF
:10005000010201011E051C0201021C051E01010115
:100060001E05103E111101050915151502051F0485
:1000700008101005081414140F050F1414140805A3
:100080000E1111110E051F1010100F071F10100C6C
:1000900010100F017F057F040C1201050201010100
:1000A0005E015F057F1010100F05081515151E0560
:1000B000103F505040050E1515150C050E1111116D
:1000C0007F050E1111110A057F1111110E05021580
:1000D00015150F0240200501010101010510204006
:1000E00020100341417F03601C03037F414105430E
:1000F000454951610560100F1060056314081463D1
:10010000077E01011E01017E057C0201027C057E45
:100110000101017E0540407F4040053249494926A2
:10012000057F44444639053E4145423D057F4848E8
:100130004830053E4141413E057F1008047F077F5E
:1001400010080408107F057F01010101057F0814D4
:10015000224105020101017E017F057F0808087F19
:10016000053E4141492F057F48484040057F4949A8
:100170004141057F4141413E053E41414122057FCC
:1001800049494936053F4848483F073E4149555D82
:10019000453805204045483003221408051414143E
:1001A00014140308142202011201120532494949AC
:1001B0003E053649494936054344485060053E49A5
:1001C00049492605725151514E050C1424447F05AE
:1001D00022414949360521434549310310207F0515
:1001E0003E4549513E03031C60010105080808080B
:1001F000080201020508083E08080528107C10289E
:100200000341221C031C224101700536494949273C
:1002100005122A7F2A2406123F12123F1204304090
:100220003040017D0300000007304A3408162906DB
:1002300020400E0FFF818181818181FF7E424242F9
:100240004242427E3C2424242424243C18181818BA
:10025000181818180018181818181800000018187E
:10026000181800000000001818000000000000002E
:100270000000000020100800000000000000000046
:10028000000007335598000000090A030B0201081B
:100290000C05060F070E0D040003050606050300F6
:1002A000070402010102040700FEFE01FE02040829
:1002B000FE10204080FFFFFF2802240224022402B7
:1002C00024022402240224022402240224022402FE
:1002D00024022402240224022402240224022402EE
:1002E00024022402240224022402240224022402DE
:1002F0002402240224022402240222021D021602E5
:10030000100228020A02080204020002FA01F401A3
:10031000F101EB01E901E501DF01DB01D501CF01CD
:10032000C901C301BD01B701B101AB01A901A6011A
:10033000A2019C01980192018A0184017E01780149
:1003400072016C01660160015A01580152014C01B1
:1003500046013E01380132012C01260120011A011B
:1003600014010E0108010001FA00F400EE00EA0099
:10037000E600E200DC00D600D300CD00C700C100DB
:10038000BB00B500AF00A900A300A1009B00950031
:1003900093008B0085007F00790073006D0067007B
:1003A00061005B0055004D00470041003B003600F6
:1003B00034002F0028001026E000200176312E3076
:1003C000202D20426C696E6B656E737461722053D0
:1003D000746F7261676520697320656D7074792030
:1003E000A30811241FBECFEFD2E0DEBFCDBF11E0C6
:1003F000A0E0B1E0E0E0FDE102C005900D92A8347C
:10040000B107D9F722E0A8E4B1E001C01D92A73BF3
:10041000B207E1F711E0C1EFD1E003C02197FE017F
:1004200067DCC03FD107D1F71FD768CCE9CD84EA9C
:100430008093BC008091BC0087FFFCCF8091B90005
:100440008871883029F08091B9008871803181F4F9
:1004500080EA8093BB0084E88093BC008091BC005C
:1004600087FFFCCF8091B900883121F480E00895A6
:1004700081E0089582E00895CF93DF93109298026F
:10048000C091A702D091A802209709F047C080919F
:10049000B202882381F18091A602811138C0EAE975
:1004A000F2E081EA92E0218121938E179F07D9F72C
:1004B0008091A20290E0FC01E654FC4FE491F0E050
:1004C000EE0FFF1FE854FD4F25913491F90154912F
:1004D0004091A4024F5F642F042E000C770B561737
:1004E000170664F04093A4028091A402811197C082
:1004F0008FEF8093A102DF91CF9108951092A40213
:10050000019666E270E0BFDB8093A202EDCF8230FD
:1005100091F71092A2021092A602EDCF8091A6024E
:10052000811193C08881823011F58091A2024EE939
:1005300052E0E6E9F2E0282F30E026593240AF8160
:10054000B885AE0FBF1FA20FB31F9C9190959483E7
:1005500031964E175F0799F7885F8093A202298131
:100560003A818217130638F21092A202C4CF81306A
:1005700011F68D81811134C0EAE9F2E08181819325
:1005800082E0E13AF807D1F79091A202492F50E0BA
:10059000EF81F885E40FF51FE081F0E0EE0FFF1F1B
:1005A000E854FD4F25913491F90164918091A402A2
:1005B0008F5FE62FF0E0682F082E000C770BE61710
:1005C000F707CCF08093A4028091A4029D81992327
:1005D00009F48CCF81112DC08FEF80939A028BCFBD
:1005E000E6E9F2E08FE892E02285238731978E17C3
:1005F0009F07D1F7C9CF1092A4028D81811108C045
:10060000CA01019669817A812ADB8093A202DCCF3C
:10061000911101C0998191509093A202D5CFF90117
:10062000E80FF11D87FDFA95E491E095E093A102B2
:1006300062CFE81BF10987FDF3953196E20FF31FB6
:10064000E491E095E0939A0256CF823009F053CFBF
:100650008091A2028F5F8093A2029C81891708F487
:100660004ACF8D81811108C01092A2021092A60279
:100670008B81809399023FCF29813A818FEF820F3E
:100680002138310518F48093A202F0CF8F77FBCF89
:10069000FC0199E0A9EAB2E001900D929A95E1F788
:1006A00089EA92E09093A8028093A7021092B20286
:1006B0008FEF80939A0280939B0280939C02809399
:1006C0009D0280939E0280939F028093A00280935C
:1006D000A102109297021092A5021092A20210920B
:1006E000A3028093A4021092A6028091AC02809390
:1006F00099028091AE02813049F48091AA029091D2
:10070000AB02009719F081508093A20281E08093A0
:100710009802B2CECF93DF93CDB7DEB729970FB64D
:10072000F894DEBF0FBECDBF50916C0180916B017C
:1007300090E09C0174E0359527957A95E1F7422F7A
:1007400029832150223050F080E029960FB6F8948A
:10075000DEBF0FBECDBFDF91CF910895982F8827C0
:1007600088279F70852B9B838A83009769F3813844
:10077000910520F080E890E09B838A8380916D0151
:1007800090916E01292F30E054E0359527955A95C8
:10079000E1F79F70413091F4482F407F3AEF341BCE
:1007A0003C838F708D832E839F838FE691E09987A2
:1007B0008887CE0101966CDF81E0C7CF8295807F6C
:1007C0003AEF381B3C832D831E82EECF1092A80295
:1007D0001092A70281E08093B2028FEF80939A0279
:1007E00080939B0280939C0280939D0280939E0243
:1007F00080939F028093A0028093A102109297029F
:100800001092A5021092A2021092A3028093A40259
:100810001092A602E8EBF3E02491E9EBF3E03491C7
:10082000E6EBF3E0E4918E2F90E0AC0164E05595A7
:1008300047956A95E1F7E22F4130F9F4E07F2AEF1E
:100840002E1B20939902E32FF0E034E0F595E79515
:100850003A95E1F7319769F4E7EBF3E0E491982FEB
:10086000882788279F708E2B009719F081508093DE
:10087000A20281E080939802FFCDE295DFCF8FEF57
:1008800084B98AB9AFE6B0E08C918D7F8C93E1E8B2
:10089000F0E08081887F80831092800010828081C8
:1008A0008860808381E080936A018FEF97E0909366
:1008B0008900809388008FB7F89426E135E0309363
:1008C0006901209368018FBF109285001092840007
:1008D000B19A8C9182608C93808190916A01892B6E
:1008E000808374CF9091EF018091F001981769F0A7
:1008F000E091F001EF73F0E0E151FE4F82819091C1
:10090000F0019F5F9093F001089580E00895982F83
:1009100080E024E8FB013191BF013093BB002093BC
:10092000BC003091BC0037FFFCCF3091B9003832A9
:1009300019F48F5F9813EECF08959C0186179707DF
:10094000F9F0861B970B6217730718F0CB01821B17
:10095000930B9695879596958795009711F481E06E
:1009600090E06217730738F4281B390B621773077E
:1009700038F4B90105C0280F391F26173707C8F307
:10098000CB010895FC012191CF012111FBCF0895E6
:100990003FB7F8948091640190916501A091660140
:1009A000B091670126B5A89B05C02F3F19F00196AD
:1009B000A11DB11D3FBFBA2FA92F982F8827BC01B9
:1009C000CD01620F711D811D911D43E0660F771FE0
:1009D000881F991F4A95D1F70895CF92DF92EF9221
:1009E000FF92CF93DF936B017C01D2DFEB01C11447
:1009F000D104E104F10441F412C081E0C81AD10825
:100A0000E108F108C851DC4FC3DF6C1B7D0B683E69
:100A1000734068F3C114D104E104F10471F7DF916C
:100A2000CF91FF90EF90DF90CF90089515B880910F
:100A30009602E82FF0E0EA56FD4F24813091B30290
:100A4000332371F09091B40289130AC04091B5022A
:100A500081E090E001C0880F4A95EAF7809528234D
:100A60002BB92091960281E090E001C0880F2A9571
:100A7000EAF785B9809196028F5F883019F08093EC
:100A80009602089510929602332369F08091B6027F
:100A9000882319F081508093B6028091B6028111AB
:100AA00002C01092B302809197028F5F80939702E9
:100AB00090919902891306C01092970281E0809369
:100AC0009802DACC089586B183FB882780F991E0FB
:100AD000892708959F92AF92BF92CF92DF92EF92B3
:100AE000FF920F931F93CF93DF9300D0CDB7DEB764
:100AF000E42EA22E932E89836A8300E084EAD82E06
:100B000091EAC92E24E8B22E34E9F32E90DC182F96
:100B1000882389F0F092BC000F5F003229F484E949
:100B20008093BC0013E042C087EE93E00197F1F799
:100B300000C00000EBCFBE016F5F7F4F82E0E7DEB9
:100B4000823041F7D092BC008091BC0087FFFCCF7F
:100B50008091B9008871883029F08091B90088713E
:100B60008031C1F6C092BB00B092BC008091BC0045
:100B700087FFFCCF8091B900803461F6EA2DF92D12
:100B800080E02FEF2E0D34EC44E828131EC0409374
:100B9000BC009091BC0097FFFCCF9091BB0091935B
:100BA0008F5FE812F2CF84E98093BC00812F0F9011
:100BB0000F90DF91CF911F910F91FF90EF90DF90F9
:100BC000CF90BF90AF909F9008953093BC00E1CF3D
:100BD00061E0680F24E932E041E080E07BDF809152
:100BE0009402682F6295660F607E8695869586953D
:100BF0002BE631E044E88F5F6DCF1092B90080E2C0
:100C00008093B80023E932E041E060E080E062CF09
:100C1000CF93C82FF2DF809193029FEF980F9E3FF2
:100C200030F4C81720F48C2FD3DFCF9173CD80E040
:100C3000CF910895CF92DF92EF92FF920F931F937F
:100C4000CF93DF9300D0CDB7DEB7E42E690189835F
:100C50006A8300E084E9F82EEADB182F882389F004
:100C6000F092BC000F5F003229F484E98093BC004D
:100C700013E016C087EE93E00197F1F700C0000083
:100C8000EBCFBE016F5F7F4F82E041DE823041F7E4
:100C9000B6018E2D3CDEE812E3CF84E98093BC00E0
:100CA000812F0F900F90DF91CF911F910F91FF90A7
:100CB000EF90DF90CF9008959C0190919502983F1E
:100CC00080F4692F6295660F607E9695969596954D
:100CD00040E281E0890FAEDF809195028F5F8093C3
:100CE00095020895CF93DF93609193026E3F88F44D
:100CF00020919502283F68F4EC016F5F60939302A6
:100D000025E932E041E080E095DFCE01DF91CF912F
:100D1000D3CFDF91CF9108951F920F920FB60F920C
:100D200011242F933F934F935F936F937F938F93F0
:100D30009F93AF93BF93CF93DF93EF93FF938091F4
:100D4000780090917900C0913402D0913502C81793
:100D5000D90760F59C012C1B3D0BE90190933502EE
:100D6000809334028091360290913702C80FD91FC8
:100D7000D0933702C0933602809133028F5F883060
:100D8000C0F480933302FF91EF91DF91CF91BF9137
:100D9000AF919F918F917F916F915F914F913F9113
:100DA0002F910F900FBE0F901F901895C81BD90B55
:100DB000D5CF109233021092370210923602D093A0
:100DC0003C02C0933B0280913D0290913E028C1701
:100DD0009D0720F4D0933E02C0933D0260914002F3
:100DE0007091410290E080E027E030E040E050E088
:100DF0001DD7DC01CB018C0F9D1FA11DB11D73E020
:100E0000B695A795979587957A95D1F79C0190937C
:100E100041028093400280914B028823E1F1293006
:100E2000310510F410924B0280914B02882319F087
:100E300026393105B8F510924C02D0934302C09385
:100E40004202D0934502C0934402D0934702C0931C
:100E50004602109249021092480210924A02809172
:100E60003802843618F48F5F80933802C639D10572
:100E700008F09DC08091380241E0893108F498C0A3
:100E800010923A0210923102109232021092F00146
:100E90001092EF0178CF2C30310530F281E0809351
:100EA0004B02C2CF80914C02811114C0D0934302F7
:100EB000C0934202D0934502C0934402D0934702AC
:100EC000C0934602109249021092480281E080933A
:100ED0004C02C3CF80914202909143028C179D0730
:100EE00008F048C0D0934302C0934202809144026C
:100EF00090914502C817D90708F043C0D093450226
:100F0000C093440280914202909143024091440276
:100F10005091450284179507D8F1841B950B909347
:100F20004902809348029C0136952795240F351F6E
:100F300030934702209346028831910508F48DCF03
:100F400043E0969587954A95E1F78330910511F432
:100F500084E090E040914A024130E9F0423019F5D6
:100F60008C0F9D1F8217930708F079CF81E0809343
:100F70004A0275CFBE01E1DC9093430280934202A6
:100F8000B5CFBE01DADC9093450280934402BACF1C
:100F900090E080E0C4CF820F931F8C179D0708F06C
:100FA0005ECF82E0E4CFC217D307D8F7DFCF42E0AD
:100FB0004093390290913A02491709F4E4CE8091A6
:100FC0003F028F3F19F08F5F80933F029923C9F151
:100FD0002091320230E0359527958091380290E8D3
:100FE000863008F490E0922B909332028091310287
:100FF0008F5F80933102877021F58091EF018F5FC1
:101000002091F001382F321B303449F0E091EF018C
:10101000EF73F0E0E151FE4F92838093EF018091F6
:101020005502E82FF0E0E35BFD4F90838F5F877000
:101030008093550280915602883018F48F5F809318
:10104000560240933A02109238029DCE1F920F92A0
:101050000FB60F9211242F933F934F935F936F938B
:101060007F938F939F93AF93BF93EF93FF93E09101
:101070006801F0916901309709F00995FF91EF91AE
:10108000BF91AF919F918F917F916F915F914F91A0
:101090003F912F910F900FBE0F901F9018951F92A8
:1010A0000F920FB60F9211242F933F938F939F931C
:1010B000AF93BF938091600190916101A091620113
:1010C000B091630130915F0126E0230F2D3768F165
:1010D00029E8230F0396A11DB11D20935F01809382
:1010E000600190936101A0936201B09363018091CC
:1010F000640190916501A0916601B091670101962C
:10110000A11DB11D8093640190936501A0936601B8
:10111000B0936701BF91AF919F918F913F912F91B4
:101120000F900FBE0F901F9018950296A11DB11D34
:10113000D4CF1F920F920FB60F9211240F900FBEB3
:101140000F901F901895CF93DF93EFEEF1E0108290
:10115000118210923102109232021092330280E01A
:1011600092E09093350280933402109237021092ED
:101170003602109238021092390210923A021092FE
:101180003C0210923B0210923E0210923D021092DD
:101190003F021092410210924002109243021092BC
:1011A000420210924502109244021092470210929D
:1011B0004602109249021092480210924A0210927E
:1011C0004B0210924C0288E0EDE4F2E0DF01C82F00
:1011D0001D92CA95E9F71092550210925602E7E562
:1011E000F2E0108211A213A212A214A215A2ADE77E
:1011F000B2E0ED01982F19929A95E9F716A6A6E8A4
:10120000B2E0ED0119928A95E9F717AA10AE11AE76
:1012100013AE12AEE3E9F2E010821282C6E9D2E028
:10122000188219821A821B8288E0E0E0F1E0AAE9C4
:10123000B2E001900D928A95E1F71C861D868FEF32
:101240008E871F86188A1A8A198AE9EAF2E089E0ED
:10125000DF011D928A95E9F71C8E1D8E1E8E1F8E52
:1012600018A2DF91CF910895CF93DF93CDB7DEB76A
:1012700067970FB6F894DEBF0FBECDBF93E095BD64
:10128000789480916E00816080936E0081E08093FD
:1012900080009093810086E880937A0084B714BE22
:1012A0000FB6F894A89580916000886180936000E3
:1012B000109260000FBE87B1877787B988B18868C0
:1012C00088B988E091E05EDB8DE091E05BDBFBDBE1
:1012D000882309F45FC137995DC169E170E080E05E
:1012E00090E07BDBF0DB882309F454C1379952C1CD
:1012F00084DC109295021092930223E932E041E0DF
:1013000060E080E097DCBBDA10924F0184EF91E05F
:1013100090935A0180935901789402E04E0129E09C
:10132000820E911C8FB7F894C0906001D09061013B
:10133000E0906201F09063018FBF80914F018111B5
:1013400086C02FB7F8948091600190916101A091BF
:101350006201B09163012FBF40915B0150915C012C
:1013600060915D0170915E01452B462B472B71F416
:10137000AC01BD0148515C4F6F4F7F4F40935B0103
:1013800050935C0160935D0170935E0140915B013D
:1013900050915C0160915D0170915E01841B950B21
:1013A000A60BB70BB7FD53C081E080934F0110929D
:1013B0004A016B9A739A1092410210924002109265
:1013C000430210924202109245021092440210927F
:1013D000470210924602109249021092480210925F
:1013E0004A0210924B0210924C0210923E0210924E
:1013F0003D0210923F0286E480937C0080917E0043
:10140000806480937E008DEA80937A0080917A00D8
:10141000806480937A001092480186E191E0B2DA0C
:10142000109257021092780210927A02109279026A
:1014300010927C0210928E0210928F0210929002F3
:1014400010929202109291028FE191E09BDA8091CA
:10145000520190915301A0915401B0915501A701FF
:101460009601281B390B4A0B5B0BDA01C901B7FD4A
:1014700039C029DB882329F0809151018160809354
:101480005101379905C080915101826080935101CB
:101490001ADB811127C0379B25C0AFDB809151013A
:1014A000813009F081C0609193028FEF860F8E3FEB
:1014B00008F076C08091500190E0019670E0E3D38F
:1014C00080935001A5DB39E1C30ED11CE11CF11C56
:1014D000C0925201D0925301E0925401F092550112
:1014E0001092510180914F01882309F445C061E2B7
:1014F000D62EFF24F39477E0E72EE6E0CE2EF5E03B
:10150000BF2EA4E0AA2EDA94DD2079F08091EF01BD
:101510009091F001891B90914801833008F063C0DD
:10152000913019F4823009F461C080917B021092ED
:101530007B02882309F110924F0110925001739899
:101540006B9880917A008F7780937A0080917E00EB
:101550008F7B80937E0088E291E014DA8FE291E045
:1015600011DA87E08093B4028093B50284E180931E
:10157000B60281E08093B302A6DA882311F0379B8C
:10158000DFC110924E0110924D0110924C01109249
:101590004B01C8CE74D91092500180E039DBB4CE33
:1015A0001092500113D98FCF823009F099CF9091CA
:1015B000930291509E3F98F48091500181110BC08D
:1015C000909350018091500123DB49E1C40ED11C5E
:1015D000E11CF11C7DCF815080935001F3CF10921C
:1015E0005001F4D8F2CF913009F059C0109248015F
:1015F000109149011092B4021092B5020093B60204
:10160000F092B30280918502E82FF0E0E95AFD4F95
:1016100016A38F5F87708093850280918F02882345
:1016200081F0E0918E02E83060F481E08E0F8093CB
:101630008E02F0E0E95AFD4F17A7883011F410929E
:101640008F02E0915702E530C0F0A091780281E06E
:101650008A0F80937802B0E0A95ABD4F11961C936F
:10166000E93058F08091790290917A02009729F040
:10167000019790937A0280937902EB3008F05DC174
:10168000F0E0EC5BF44F099461C068C097C055C1AD
:10169000D6C0E2C0EEC0FEC0FFC00BC130C122D92F
:1016A000182F20D9809349011DD990914901E12F2C
:1016B000EF70F0E0E856FD4F3491E12FF0E024E0C8
:1016C000F595E7952A95E1F7E857FD4F4491E92F05
:1016D000EF70F0E0E856FD4F2491E92FF0E054E080
:1016E000F595E7955A95E1F7E857FD4FE491E22724
:1016F000E295E07F3427E32B8E17F9F08E27E82F51
:10170000EF70F0E0E855FD4FE491EE2329F0EF3F54
:10171000C9F0EE3F09F01E27E82FF0E0B4E0F595A0
:10172000E795BA95E1F7E855FD4FE491EE2329F0EE
:10173000EF3F51F0EE3F09F09E2790934901F09260
:10174000480158CF10E0E8CF90E0F7CF153A19F0F4
:10175000193909F0D8CEF0925702D5CE1A3511F0CA
:10176000193929F50093570210927C02809190025A
:1017700081608093900210928E02F0928F0280918D
:101780004A01811103C039DAF0924A0110929502A0
:1017900010929302E4E7F2E0ABE6B1E084918D931E
:1017A000319651E0AF37B507C9F7B4D7ACCE81E079
:1017B000153A09F080E080935702A5CE1F3011F052
:1017C000193A41F4A092570280919002826080936E
:1017D000900299CE143809F0B0C080917C0281113A
:1017E0000FC0109257021092780210927A02109253
:1017F00079021092F0011092EF011092480183CE0D
:101800008091900288608093900223E932E041E069
:1018100060E080E00FDA1092570210927C02109282
:10182000F0011092EF0110924801F0927B0280913A
:10183000900280618093900280E0CAD9B6CF103FB9
:1018400019F0193A09F079C0B09257021092780253
:10185000809190028460BBCFC0925702812F90E0AC
:10186000982F882788279F7090937A028093790217
:101870004ACEE09257028091790290917A02810FCC
:10188000911D90937A0280937902909392028093B3
:10189000910239CE88E08FCF99E0909357028091E2
:1018A000790290917A02892B09F02DCE009357028C
:1018B0002ACE8091790290917A02892B81F400934B
:1018C0005702F0927C0288E592E00CDA1092B402A2
:1018D0000093B602F092B302E092B50214CE80916A
:1018E0007802803209F00FCEAAE0A093570210923E
:1018F000780288E592E0F6D9F092B402E9CF8091BF
:10190000790290917A02892B51F400935702F09258
:101910007C0288E592E0D0D90093B402D9CF8091BF
:101920007802803209F0EFCD1092780288E592E0DB
:10193000C3D9B3E0B093B402CBCF10925702E3CD3A
:1019400080914D0190914E018032910530F40196C5
:1019500090934E0180934D01E5CC80914B01909185
:101960004C018115E8E09E0730F4019690934C01FC
:1019700080934B01D7CC8AE391E004D8FAE92F2E6B
:10198000F2E03F2E9E012F5F3F4F7901C901F10127
:101990002191DC012D93CD018A169B06C9F7209178
:1019A000B30229872091B4022A872091B5022B87A0
:1019B0002091B6022C872091A7023091A802409175
:1019C000B2022115310509F040E04D8741E02115B3
:1019D000310509F440E04E87232B49F029E0E9EA7C
:1019E000F2E0DE011F9601900D922A95E1F7EAE9F7
:1019F000F2E06701D6012D916D012193A817B90777
:101A0000C9F71092A8021092A7021092B202109287
:101A1000970210929802109299021092A2021092CC
:101A2000A3028FEF8093A4021092A5021092A60247
:101A3000E0E3F2E08491E1E3F2E0E49190E0982FBA
:101A4000882788279F708E2B63E0969587956A95E7
:101A5000E1F7182FE2E3F2E0E491E295E07F6AEF2C
:101A60006E1B70E090E080E0EBE0660F771F881F50
:101A7000991FEA95D1F76C507E4F8F4F9F4F28EEFC
:101A800033E040E050E012D12115310511F421E09E
:101A900030E0B12CA12C2901712C612CA116F0F49D
:101AA000AAE9B2E030E020E0C50143E0880F991FC9
:101AB0004A95E1F78C5C9D4FFC01E20FF31FE49126
:101AC000E095ED932F5F3F4F28303105A9F7C30113
:101AD000B20183D7BFEFAB1ABB0AE0CFF4D78111B5
:101AE00002C0379906C061E070E080E090E075D7F1
:101AF000F5CF14E661E070E080E090E06ED7115021
:101B0000C9F780916F008D7F80936F008091810075
:101B1000887F809381001AB814B880916400816036
:101B20008093640080916C00886880936C00809141
:101B3000680082608093680083B7897F846083BF78
:101B400083B7816083BF7894889583B78E7F83BF86
:101B500080916C00877780936C0091D68D85882367
:101B6000C1F034D689858093B3028A858093B4020C
:101B70008B858093B5028C858093B602A4D78111A2
:101B800002C037993AC061E070E080E090E025D76C
:101B9000F5CF8E85882321F0CE010F9679D5E2CF3F
:101BA000F70181917F01D1018D931D01EC15FD0598
:101BB000B9F789858093B3028A858093B4028B85B7
:101BC0008093B5028C858093B6021092A802109281
:101BD000A7021092B20210929702109298021092ED
:101BE00099021092A2021092A3028FEF8093A40296
:101BF0001092A5021092A602C1CF14E661E070E037
:101C000080E090E0EAD61150C9F7809164008E7FA1
:101C10008093640083E491E0B5D610924C01109259
:101C20004B0110924E0110924D017CCBEE27FF2705
:101C3000AA27BB2708C0A20FB31FE41FF51F220F5E
:101C4000331F441F551F969587957795679598F391
:101C50007040A9F7009799F7BD01CF010895AA1B1D
:101C6000BB1B51E107C0AA1FBB1FA617B70710F087
:101C7000A61BB70B881F991F5A95A9F780959095B9
:101C8000BC01CD01089597FB072E16F4009406D0F1
:101C900077FD08D0E4DF07FC05D03EF490958195F0
:101CA0009F4F0895709561957F4F0895A1E21A2E78
:101CB000AA1BBB1BFD010DC0AA1FBB1FEE1FFF1FF0
:101CC000A217B307E407F50720F0A21BB30BE40B40
:101CD000F50B661F771F881F991F1A9469F7609587
:101CE0007095809590959B01AC01BD01CF01089541
:101CF000EE0FFF1F0590F491E02D0994F894FFCFAB
:101D0000FFFFFFFFFFFFFFFF424F4F54004D4355C2
:101D100053523D307800525820424547494E004DBD
:101D20004F44454D204F4E00525820454E440046EA
:101D300052414D4520444F4E450053485554444F61
:081D4000574E0057414B4500CE
:00000001FF
